{
  "contractName": "AuctionFactory",
  "abi": [
    {
      "anonymous": false,
      "inputs": [
        {
          "indexed": true,
          "internalType": "contract Auction",
          "name": "auctions",
          "type": "address"
        },
        {
          "indexed": true,
          "internalType": "address",
          "name": "owner",
          "type": "address"
        }
      ],
      "name": "AuctionCreated",
      "type": "event"
    },
    {
      "inputs": [
        {
          "internalType": "string",
          "name": "productName",
          "type": "string"
        },
        {
          "internalType": "string",
          "name": "description",
          "type": "string"
        },
        {
          "internalType": "uint256",
          "name": "_basePrice",
          "type": "uint256"
        },
        {
          "internalType": "uint256",
          "name": "_incrementMin",
          "type": "uint256"
        },
        {
          "internalType": "uint256",
          "name": "_endTime",
          "type": "uint256"
        },
        {
          "internalType": "string",
          "name": "imageURL",
          "type": "string"
        }
      ],
      "name": "createAuction",
      "outputs": [],
      "stateMutability": "nonpayable",
      "type": "function"
    },
    {
      "inputs": [
        {
          "internalType": "uint256",
          "name": "limit",
          "type": "uint256"
        },
        {
          "internalType": "uint256",
          "name": "offset",
          "type": "uint256"
        }
      ],
      "name": "auctions",
      "outputs": [
        {
          "internalType": "contract Auction[]",
          "name": "coll",
          "type": "address[]"
        }
      ],
      "stateMutability": "view",
      "type": "function"
    },
    {
      "inputs": [],
      "name": "auctionCount",
      "outputs": [
        {
          "internalType": "uint256",
          "name": "",
          "type": "uint256"
        }
      ],
      "stateMutability": "view",
      "type": "function"
    }
  ],
  "bytecode": "0x608060405234801561001057600080fd5b50611cf8806100206000396000f3fe60806040523480156200001157600080fd5b5060043610620000465760003560e01c80632ad71573146200004b5780637476c7e6146200006b578063fc23d5f0146200027e575b600080fd5b6200005562000310565b6040518082815260200191505060405180910390f35b6200027c600480360360c08110156200008357600080fd5b8101908080359060200190640100000000811115620000a157600080fd5b820183602082011115620000b457600080fd5b80359060200191846001830284011164010000000083111715620000d757600080fd5b91908080601f016020809104026020016040519081016040528093929190818152602001838380828437600081840152601f19601f820116905080830192505050505050509192919290803590602001906401000000008111156200013b57600080fd5b8201836020820111156200014e57600080fd5b803590602001918460018302840111640100000000831117156200017157600080fd5b91908080601f016020809104026020016040519081016040528093929190818152602001838380828437600081840152601f19601f82011690508083019250505050505050919291929080359060200190929190803590602001909291908035906020019092919080359060200190640100000000811115620001f357600080fd5b8201836020820111156200020657600080fd5b803590602001918460018302840111640100000000831117156200022957600080fd5b91908080601f016020809104026020016040519081016040528093929190818152602001838380828437600081840152601f19601f8201169050808301925050505050505091929192905050506200031c565b005b620002b7600480360360408110156200029657600080fd5b8101908080359060200190929190803590602001909291905050506200057d565b6040518080602001828103825283818151815260200191508051906020019060200280838360005b83811015620002fc578082015181840152602081019050620002df565b505050509050019250505060405180910390f35b60008080549050905090565b6000868686868686604051620003329062000726565b8080602001806020018781526020018681526020018581526020018060200184810384528a818151815260200191508051906020019080838360005b838110156200038b5780820151818401526020810190506200036e565b50505050905090810190601f168015620003b95780820380516001836020036101000a031916815260200191505b50848103835289818151815260200191508051906020019080838360005b83811015620003f4578082015181840152602081019050620003d7565b50505050905090810190601f168015620004225780820380516001836020036101000a031916815260200191505b50848103825285818151815260200191508051906020019080838360005b838110156200045d57808201518184015260208101905062000440565b50505050905090810190601f1680156200048b5780820380516001836020036101000a031916815260200191505b509950505050505050505050604051809103906000f080158015620004b4573d6000803e3d6000fd5b5090506000819080600181540180825580915050600190039060005260206000200160009091909190916101000a81548173ffffffffffffffffffffffffffffffffffffffff021916908373ffffffffffffffffffffffffffffffffffffffff1602179055503373ffffffffffffffffffffffffffffffffffffffff168173ffffffffffffffffffffffffffffffffffffffff167f0bdb7849ed0b0249d0f995067a2ca77769f68ab4c654931e262676effeb395f260405160405180910390a350505050505050565b60606200058962000310565b821115620005ff576040517f08c379a00000000000000000000000000000000000000000000000000000000081526004018080602001828103825260148152602001807f6f6666736574206f7574206f6620626f756e647300000000000000000000000081525060200191505060405180910390fd5b6000826200060c62000310565b0390508381106200061e578362000620565b805b9050601481106200063357601462000635565b805b90508067ffffffffffffffff811180156200064f57600080fd5b506040519080825280602002602001820160405280156200067f5781602001602082028036833780820191505090505b50915060005b818110156200071e576000818501815481106200069e57fe5b9060005260206000200160009054906101000a900473ffffffffffffffffffffffffffffffffffffffff16838281518110620006d657fe5b602002602001019073ffffffffffffffffffffffffffffffffffffffff16908173ffffffffffffffffffffffffffffffffffffffff1681525050808060010191505062000685565b505092915050565b61158e80620007358339019056fe60806040523480156200001157600080fd5b506040516200158e3803806200158e833981810160405260c08110156200003757600080fd5b81019080805160405193929190846401000000008211156200005857600080fd5b838201915060208201858111156200006f57600080fd5b82518660018202830111640100000000821117156200008d57600080fd5b8083526020830192505050908051906020019080838360005b83811015620000c3578082015181840152602081019050620000a6565b50505050905090810190601f168015620000f15780820380516001836020036101000a031916815260200191505b50604052602001805160405193929190846401000000008211156200011557600080fd5b838201915060208201858111156200012c57600080fd5b82518660018202830111640100000000821117156200014a57600080fd5b8083526020830192505050908051906020019080838360005b838110156200018057808201518184015260208101905062000163565b50505050905090810190601f168015620001ae5780820380516001836020036101000a031916815260200191505b5060405260200180519060200190929190805190602001909291908051906020019092919080516040519392919084640100000000821115620001f057600080fd5b838201915060208201858111156200020757600080fd5b82518660018202830111640100000000821117156200022557600080fd5b8083526020830192505050908051906020019080838360005b838110156200025b5780820151818401526020810190506200023e565b50505050905090810190601f168015620002895780820380516001836020036101000a031916815260200191505b506040525050506000620002a26200043460201b60201c565b9050806000806101000a81548173ffffffffffffffffffffffffffffffffffffffff021916908373ffffffffffffffffffffffffffffffffffffffff1602179055508073ffffffffffffffffffffffffffffffffffffffff16600073ffffffffffffffffffffffffffffffffffffffff167f8be0079c531659141344cd1fd0a4f28419497f9722a3daafe3b4186f6b6457e060405160405180910390a3508360018190555082600281905550426004819055508160058190555033600660006101000a81548173ffffffffffffffffffffffffffffffffffffffff021916908373ffffffffffffffffffffffffffffffffffffffff160217905550620003a76200043c565b60405180606001604052808881526020018781526020018381525090508060086000820151816000019080519060200190620003e59291906200045d565b506020820151816001019080519060200190620004049291906200045d565b506040820151816002019080519060200190620004239291906200045d565b509050505050505050505062000503565b600033905090565b60405180606001604052806060815260200160608152602001606081525090565b828054600181600116156101000203166002900490600052602060002090601f016020900481019282601f10620004a057805160ff1916838001178555620004d1565b82800160010185558215620004d1579182015b82811115620004d0578251825591602001919060010190620004b3565b5b509050620004e09190620004e4565b5090565b5b80821115620004ff576000816000905550600101620004e5565b5090565b61107b80620005136000396000f3fe6080604052600436106100dd5760003560e01c8063715018a61161007f578063aabe2fe311610059578063aabe2fe3146103b0578063bf9ce952146103f1578063c7876ea414610559578063f2fde38b14610584576100dd565b8063715018a61461032d57806388149fb9146103445780638da5cb5b1461036f576100dd565b8063378252f2116100bb578063378252f2146101425780635ec2c7bf14610159578063625deb861461019a5780636688a14b14610302576100dd565b806316b49325146100e25780631c0b7b181461010d5780633197cbb614610117575b600080fd5b3480156100ee57600080fd5b506100f76105d5565b6040518082815260200191505060405180910390f35b6101156105db565b005b34801561012357600080fd5b5061012c6106cf565b6040518082815260200191505060405180910390f35b34801561014e57600080fd5b506101576106d5565b005b34801561016557600080fd5b5061016e61082c565b604051808273ffffffffffffffffffffffffffffffffffffffff16815260200191505060405180910390f35b3480156101a657600080fd5b506101af610852565b60405180806020018060200180602001848103845287818151815260200191508051906020019080838360005b838110156101f75780820151818401526020810190506101dc565b50505050905090810190601f1680156102245780820380516001836020036101000a031916815260200191505b50848103835286818151815260200191508051906020019080838360005b8381101561025d578082015181840152602081019050610242565b50505050905090810190601f16801561028a5780820380516001836020036101000a031916815260200191505b50848103825285818151815260200191508051906020019080838360005b838110156102c35780820151818401526020810190506102a8565b50505050905090810190601f1680156102f05780820380516001836020036101000a031916815260200191505b50965050505050505060405180910390f35b34801561030e57600080fd5b50610317610a45565b6040518082815260200191505060405180910390f35b34801561033957600080fd5b50610342610a4b565b005b34801561035057600080fd5b50610359610bb8565b6040518082815260200191505060405180910390f35b34801561037b57600080fd5b50610384610bbe565b604051808273ffffffffffffffffffffffffffffffffffffffff16815260200191505060405180910390f35b3480156103bc57600080fd5b506103c5610be7565b604051808273ffffffffffffffffffffffffffffffffffffffff16815260200191505060405180910390f35b3480156103fd57600080fd5b50610406610c0d565b60405180806020018060200180602001848103845287818151815260200191508051906020019080838360005b8381101561044e578082015181840152602081019050610433565b50505050905090810190601f16801561047b5780820380516001836020036101000a031916815260200191505b50848103835286818151815260200191508051906020019080838360005b838110156104b4578082015181840152602081019050610499565b50505050905090810190601f1680156104e15780820380516001836020036101000a031916815260200191505b50848103825285818151815260200191508051906020019080838360005b8381101561051a5780820151818401526020810190506104ff565b50505050905090810190601f1680156105475780820380516001836020036101000a031916815260200191505b50965050505050505060405180910390f35b34801561056557600080fd5b5061056e610ded565b6040518082815260200191505060405180910390f35b34801561059057600080fd5b506105d3600480360360208110156105a757600080fd5b81019080803573ffffffffffffffffffffffffffffffffffffffff169060200190929190505050610df3565b005b60025481565b346003548111610636576040517f08c379a00000000000000000000000000000000000000000000000000000000081526004018080602001828103825260328152602001806110146032913960400191505060405180910390fd5b3460038190555033600760006101000a81548173ffffffffffffffffffffffffffffffffffffffff021916908373ffffffffffffffffffffffffffffffffffffffff1602179055503373ffffffffffffffffffffffffffffffffffffffff167ffc89b5213d5c8114533dbcbc5920aae7050bd2d8181d1e7e9e6c125ddacee1fa346040518082815260200191505060405180910390a250565b60055481565b6106dd610fe5565b73ffffffffffffffffffffffffffffffffffffffff166106fb610bbe565b73ffffffffffffffffffffffffffffffffffffffff1614610784576040517f08c379a00000000000000000000000000000000000000000000000000000000081526004018080602001828103825260208152602001807f4f776e61626c653a2063616c6c6572206973206e6f7420746865206f776e657281525060200191505060405180910390fd5b6000479050600660009054906101000a900473ffffffffffffffffffffffffffffffffffffffff1673ffffffffffffffffffffffffffffffffffffffff166108fc829081150290604051600060405180830381858888f193505050501580156107f1573d6000803e3d6000fd5b507f35d12aee8d82758bbbe22033c0e4636151fb38714b5b680e94ffb30ef9e6222b816040518082815260200191505060405180910390a150565b600660009054906101000a900473ffffffffffffffffffffffffffffffffffffffff1681565b6060806060600860000160086001016008600201828054600181600116156101000203166002900480601f0160208091040260200160405190810160405280929190818152602001828054600181600116156101000203166002900480156108fb5780601f106108d0576101008083540402835291602001916108fb565b820191906000526020600020905b8154815290600101906020018083116108de57829003601f168201915b50505050509250818054600181600116156101000203166002900480601f0160208091040260200160405190810160405280929190818152602001828054600181600116156101000203166002900480156109975780601f1061096c57610100808354040283529160200191610997565b820191906000526020600020905b81548152906001019060200180831161097a57829003601f168201915b50505050509150808054600181600116156101000203166002900480601f016020809104026020016040519081016040528092919081815260200182805460018160011615610100020316600290048015610a335780601f10610a0857610100808354040283529160200191610a33565b820191906000526020600020905b815481529060010190602001808311610a1657829003601f168201915b50505050509050925092509250909192565b60035481565b610a53610fe5565b73ffffffffffffffffffffffffffffffffffffffff16610a71610bbe565b73ffffffffffffffffffffffffffffffffffffffff1614610afa576040517f08c379a00000000000000000000000000000000000000000000000000000000081526004018080602001828103825260208152602001807f4f776e61626c653a2063616c6c6572206973206e6f7420746865206f776e657281525060200191505060405180910390fd5b600073ffffffffffffffffffffffffffffffffffffffff1660008054906101000a900473ffffffffffffffffffffffffffffffffffffffff1673ffffffffffffffffffffffffffffffffffffffff167f8be0079c531659141344cd1fd0a4f28419497f9722a3daafe3b4186f6b6457e060405160405180910390a360008060006101000a81548173ffffffffffffffffffffffffffffffffffffffff021916908373ffffffffffffffffffffffffffffffffffffffff160217905550565b60045481565b60008060009054906101000a900473ffffffffffffffffffffffffffffffffffffffff16905090565b600760009054906101000a900473ffffffffffffffffffffffffffffffffffffffff1681565b6008806000018054600181600116156101000203166002900480601f016020809104026020016040519081016040528092919081815260200182805460018160011615610100020316600290048015610ca75780601f10610c7c57610100808354040283529160200191610ca7565b820191906000526020600020905b815481529060010190602001808311610c8a57829003601f168201915b505050505090806001018054600181600116156101000203166002900480601f016020809104026020016040519081016040528092919081815260200182805460018160011615610100020316600290048015610d455780601f10610d1a57610100808354040283529160200191610d45565b820191906000526020600020905b815481529060010190602001808311610d2857829003601f168201915b505050505090806002018054600181600116156101000203166002900480601f016020809104026020016040519081016040528092919081815260200182805460018160011615610100020316600290048015610de35780601f10610db857610100808354040283529160200191610de3565b820191906000526020600020905b815481529060010190602001808311610dc657829003601f168201915b5050505050905083565b60015481565b610dfb610fe5565b73ffffffffffffffffffffffffffffffffffffffff16610e19610bbe565b73ffffffffffffffffffffffffffffffffffffffff1614610ea2576040517f08c379a00000000000000000000000000000000000000000000000000000000081526004018080602001828103825260208152602001807f4f776e61626c653a2063616c6c6572206973206e6f7420746865206f776e657281525060200191505060405180910390fd5b600073ffffffffffffffffffffffffffffffffffffffff168173ffffffffffffffffffffffffffffffffffffffff161415610f28576040517f08c379a0000000000000000000000000000000000000000000000000000000008152600401808060200182810382526026815260200180610fee6026913960400191505060405180910390fd5b8073ffffffffffffffffffffffffffffffffffffffff1660008054906101000a900473ffffffffffffffffffffffffffffffffffffffff1673ffffffffffffffffffffffffffffffffffffffff167f8be0079c531659141344cd1fd0a4f28419497f9722a3daafe3b4186f6b6457e060405160405180910390a3806000806101000a81548173ffffffffffffffffffffffffffffffffffffffff021916908373ffffffffffffffffffffffffffffffffffffffff16021790555050565b60003390509056fe4f776e61626c653a206e6577206f776e657220697320746865207a65726f20616464726573734e6f74206772656174686572206269643a20796f752073686f756c642070726f706f73206120677265617468657220626964a2646970667358221220d369ae8a10083da53441ba237edcdd71f7ab946d58f3e3dd9efef0bec58e682c64736f6c634300060c0033a2646970667358221220354155b36ad321e2790e65b938254100501f7832361b1d06b622bc1f570ab96b64736f6c634300060c0033",
  "immutableReferences": {},
  "source": "// SPDX-License-Identifier: GPL-3.0-or-later\npragma solidity >=0.4.22 <0.9.0;\nimport \"./Auction.sol\";\n\ncontract AuctionFactory {\n    uint256 constant maxLimit = 20;\n\n    Auction[] private _auctions;\n\n    event AuctionCreated(Auction indexed auctions, address indexed owner);\n\n    function createAuction(\n        string memory productName,\n        string memory description,\n        uint256 _basePrice,\n        uint256 _incrementMin,\n        uint256 _endTime,\n        string memory imageURL\n    ) public {\n        Auction auction =\n            new Auction(\n                productName,\n                description,\n                _basePrice,\n                _incrementMin,\n                _endTime,\n                imageURL\n            );\n        _auctions.push(auction);\n        emit AuctionCreated(auction, msg.sender);\n    }\n\n    function auctions(uint256 limit, uint256 offset)\n        public\n        view\n        returns (Auction[] memory coll)\n    {\n        require(offset <= auctionCount(), \"offset out of bounds\");\n\n        uint256 size = auctionCount() - offset;\n        size = size < limit ? size : limit;\n        size = size < maxLimit ? size : maxLimit;\n        coll = new Auction[](size);\n\n        for (uint256 i = 0; i < size; i++) {\n            coll[i] = _auctions[offset + i];\n        }\n\n        return coll;\n    }\n\n    function auctionCount() public view returns (uint256) {\n        return _auctions.length;\n    }\n}\n",
  "sourcePath": "/home/antonio/GitHub/learning-smart-contracts/auctions/src/contracts/AuctionFactory.sol",
  "compiler": {
    "name": "solc",
    "version": "0.6.12+commit.27d51765.Emscripten.clang"
  },
  "schemaVersion": "3.3.3",
  "updatedAt": "2021-02-09T20:13:14.530Z",
  "devdoc": {
    "kind": "dev",
    "methods": {},
    "version": 1
  },
  "userdoc": {
    "kind": "user",
    "methods": {},
    "version": 1
  }
}